:020000040800F2
:10000000600A002001010008F92A000831280008D0
:10001000F52A00082D07000815350008000000002B
:10002000000000000000000000000000A32D0008F8
:100030003107000800000000352B0008A52D00083E
:100040001B0100081B0100081B0100081B01000820
:100050001B0100081B0100081B0100081B01000810
:100060001B0100081B0100081B0100081B01000800
:100070001B0100081B0100081B0100081B010008F0
:100080001B0100081B0100081B0100081B010008E0
:100090001B0100081B0100081B010008670700087E
:1000A0001B010008B12E00081B0100081B010008FD
:1000B0001B0100081B0100081B0100081B010008B0
:1000C0001B0100081B0100081B0100081B010008A0
:1000D0001B010008F93400081B0100081B0100087F
:1000E000330700081B0100081B010008DFF80CD0D3
:1000F00000F09EFA00480047153C0008600A002006
:100100000648804706480047FEE7FEE7FEE7FEE7B1
:10011000FEE7FEE7FEE7FEE7FEE7FEE7592E0008F2
:10012000ED000008202A04DB203A21FA02F0002129
:10013000704721FA02F3D040C2F1200291400843F7
:1001400019467047F0B480EA0102D40F4200B2EBC6
:10015000410F02D20246084611464A0042D0C30D62
:10016000DDB2C1F3C752AD1A202D35DAC1F3160145
:1001700041F4000204B15242C5F1200602FA06F130
:100180002A411044B3EBD05F23D0C4B1012DA0EBC2
:10019000C35009DCF0BC4FF0004202EAC352DBB2AC
:1001A00000F5000000F0B8B9400000F1807000EBED
:1001B000C350A0F1807040EAD170490009E04908BD
:1001C00041EAC071A0EBC35000F50000400800EB0D
:1001D000C350F0BC00F097B96142012202EB41012B
:1001E000001BF6E7F0BC704781F00041AAE780F001
:1001F0000040A7E780EA010210B502F0004340008A
:1002000022D04A001FD0010E01EB1261C0F356004C
:10021000C2F3560240F4000042F40002A0FB0220A8
:1002200000047F39140400D0401C50EA124001D46D
:100230004000491EC2B20C0604EBD010401C40081E
:10024000802A02D003E0002010BD20F00100002928
:1002500000DA0020184310BD30B480EA010202F039
:10026000004530F0004221F0004013D090B1C30DA2
:10027000D40DC2F31601C0F31600E41A41F40001D4
:1002800040F400027D34914201D3641C00E0490037
:10029000002C02DA30BC002070474FF4000000232D
:1002A000914201D3891A034340084FEA4101F7D133
:1002B00051B1914202D14FF0004105E002D24FF01E
:1002C000010101E06FF0010103EBC450284430BC90
:1002D00000F019B92DE9FE4F804681EA0300C00FF6
:1002E0000C46009021F0004123F00045B8EB0200DD
:1002F000A94105D24046214690461C460B4602467F
:1003000023F00040104347D0270DC7F30A00C3F382
:100310000A510290401A019040286BDAC3F313008F
:1003200040F4801B0098924620B10023D2EB030AD0
:1003300063EB0B0B01985946C0F14002504600F0A8
:10034000C1F806460D4650465946019A00F0C9F8D4
:1003500010EB08006141002487EA115284EAE77338
:100360001A4340D0009A62B3019A012A4FEA075219
:1003700015DC001B61EB02014FF0004202EA07525C
:10038000CDE90042001C41F5801132462B4600F0B9
:1003900000F903B0BDE8F08F40462146F9E7001BA5
:1003A00061EB0201001C41F5801300185B4120182D
:1003B000A2F5001747EB030140EAD570B6196D416D
:1003C00011E06D084FEA360645EAC0754FEA07525C
:1003D000001B61EB0201001C41F5801149084FEA46
:1003E00030000019514132462B4603B0BDE8F04FB2
:1003F00000F0C0B80098012240000023D0EB0202B8
:1004000063EBE073009821464FEAE074B8EB00001C
:1004100061EB0401E9E783F000435BE781F0004111
:1004200058E7C10F80EAE0700844CA07962300210C
:1004300000F072B896230022114600F06DB800F06B
:10044000004230F000400AD0C10D01F56071C0F3E8
:10045000160042EA0151C2084007114370470020CC
:100460000146704701F0004330B421F0004150EAEA
:10047000010206D00A0DA2F56072C1F31301002A31
:1004800002DC30BC00207047440F44EAC104C100C4
:10049000E01830BC00EBC25000F035B8002801DB9A
:1004A000C0F10040002901DBC1F1004181427047E9
:1004B000002801DBC0F10040002901DBC1F100414F
:1004C00088427047202A04DB203A00FA02F100201B
:1004D00070479140C2F1200320FA03F31943904082
:1004E0007047202A06DBCB17203A41FA02F043EA94
:1004F000E07306E041FA02F3D040C2F120029140DD
:100500000843194670470029A8BF7047401C49009E
:1005100008BF20F00100704710B4B0FA80FC00FA68
:100520000CF050EA010404BF10BC704749B1CCF193
:10053000200421FA04F411FA0CF118BF012121431F
:100540000843A3EB0C01CB1D4FEA00614FEA1020DA
:1005500042BF002010BC704700EBC350104400297C
:10056000A4BF10BC7047401C490008BF20F0010028
:1005700010BC704710B5141E73F1000408DA401C5B
:1005800041F1000192185B411A4301D120F00100B2
:1005900010BD2DE9F04D92469B4611B1B1FA81F2A2
:1005A00002E0B0FA80F220329046FFF78BFF04465B
:1005B0000F4640EA0A0041EA0B0153465A460843F7
:1005C00013D0114653EA010019D0C8F14002504639
:1005D000FFF7A8FD05460E46504659464246FFF72E
:1005E00071FF084305D0012004E020463946BDE8EC
:1005F000F08D0020054346EAE0762C4337430A9805
:100600006305E40AA0EB08000022FD0A44EA47540F
:100610000A3002D500200146E9E7010510196941B9
:10062000DDE9084500196941BDE8F04DA2E7000089
:10063000064C074D06E0E06840F0010394E807002F
:1006400098471034AC42F6D3FFF754FD0445000838
:100650002445000870B5044600252068806800F035
:100660000100F0B12068806820F0010021688860F6
:1006700000F0C4FD05460EE000F0C0FD401B02285E
:1006800009D9A06A40F01000A062E06A40F00100C1
:10069000E062012070BD2068806800F00100002841
:1006A000EAD10020F6E7000038B504460025002016
:1006B00000902068806800F0010080BB206880689E
:1006C00040F0010021688860164800681649B0FBB8
:1006D000F1F0009002E00098401E00900098002881
:1006E000F9D100F08BFD054613E000F087FD401BBB
:1006F00002280ED9A06A40F01000A062E06A40F023
:100700000100E06200BF002084F8240000BF012047
:1007100038BD2068806800F001000028E5D0002086
:10072000F6E700006400002040420F0000BFFEE733
:10073000704710B54FF4806000F0B6FB4FF40060D6
:1007400000F0B2FB4FF4805000F0AEFB4FF40050CD
:1007500000F0AAFB4FF4804000F0A6FB4FF40040ED
:1007600000F0A2FB10BD10B54FF4807000F09CFBB0
:100770004FF4007000F098FB10BD000038B5024641
:1007800000230020009000BF92F82400012801D12E
:10079000022038BD012082F8240000BF48680728E5
:1007A00012D21068406B0C79641E04EB84051F2480
:1007B000AC40A0430D796D1E05EB85050C68AC407F
:1007C00020431468606327E048680D2812D210683F
:1007D000006B0C79E41F04EB84051F24AC40A0439C
:1007E0000D79ED1F05EB85050C68AC4020431468BE
:1007F000206311E01068C06A0C790D3C04EB84059D
:100800001F24AC40A0430D790D3D05EB85050C6818
:10081000AC4020431468E06208680A2812D31068CC
:10082000C0680C780A3C04EB44050724AC40A043A4
:100830000D780A3D05EB45058C68AC4020431468F3
:10084000E0600FE0106800690C7804EB44050724B1
:10085000AC40A0430D7805EB45058C68AC402043C7
:10086000146820610868102802D00868112827D170
:10087000174C1068A0421ED11068806800F4000078
:10088000F0B91068806840F400001468A06008683F
:10089000102815D10F4800680F4CB0FBF4F000EBA6
:1008A00080004000009002E00098401E00900098F8
:1008B0000028F9D104E0906A40F020009062012302
:1008C00000BF002082F8240000BF184661E7000046
:1008D000002401406400002040420F0001460868E7
:1008E000C06C70472DE9F041044600270025002622
:1008F000A84614B90120BDE8F081A06810B1606974
:1009000000B100BFA06A30B90020E06284F8240082
:10091000204600F089F82046FFF79CFE0746A06AB3
:1009200000F01000002873D1002F71D1A06A20F4CC
:10093000885040F00200A062E16960680843E16805
:1009400040EA41000643A068B0F5807F02D0A0686D
:10095000012802D14FF4807000E000200543606957
:10096000012811D1E06838B9A069401E4FF4006138
:1009700041EA4030054307E0A06A40F02000A06251
:10098000E06A40F00100E0622068406820F46940BD
:100990002843216848602068806821490840304326
:1009A00021688860A068B0F5807F02D0A068012827
:1009B00002D14FF4807000E00020B0F5807F03D1B9
:1009C000208A401E4FEA00582068C06A20F4700058
:1009D00040EA08002168C862206880681149084020
:1009E000B04208D10020E062A06A20F0020040F08E
:1009F0000100A06211E0A06A20F0020040F01000A7
:100A0000A062E06A40F00100E062012705E0FFE734
:100A1000A06A40F01000A062012738466BE7000092
:100A2000FDF7E1FFFE0E1FFF10B586B004460E492C
:100A30002068884215D100BF0C48806940F40070DE
:100A40000A4988610846806900F40070019000BF7F
:100A500000BF702002900320039002A9044800F018
:100A600031FA06B010BD0000002401400010024021
:100A700000080140F8B504460D460026002000900D
:100A8000002700F0BBFB06462068806800F48070F9
:100A900050B1A06A40F02000A06200BF002084F89E
:100AA000240000BF0120F8BD2068406800F4807079
:100AB000F8B92068C06A00F47000D0B912E0681C70
:100AC00080B125B100F09AFB801BA8420AD9A06A28
:100AD00040F00400A06200BF002084F8240000BFA2
:100AE0000320E0E72068006800F002000028E6D05C
:100AF00050E0022000F074FC36490968B1FBF0F0C8
:100B000021680969344A114091B92168C968921174
:100B1000114069B921680969304A114031B9216829
:100B2000C9689211114009B9142117E0292115E073
:100B300021680969294A114021B92168C9689211BF
:100B4000114041B121680969254A114029B921683C
:100B5000C968114009B9542100E0FC2100FB01F7EC
:100B600015E0681C80B125B100F048FB801BA8424D
:100B70000AD9A06A40F00400A06200BF002084F8F7
:100B8000240000BF03208EE70098401C00900098CE
:100B9000B842E6D36FF0120021680860A06A40F402
:100BA0000070A0622068806800F46020B0F5602FBB
:100BB0000DD1E06858B9A06A20F48070A062A06AE4
:100BC00000F4805018B9A06A40F00100A062002033
:100BD00069E700006400002024499224922449120D
:100BE0004992240070B50446002500BF94F8240003
:100BF000012801D1022070BD012084F8240000BF2B
:100C00002046FFF751FD0546002D77D1A06A40F23E
:100C10000121884340F48070A0623C4920688842EA
:100C200008D13B48006800F4702008B9012002E0B8
:100C3000002000E0012078B1A06A20F48010A062BA
:100C40002068406800F4806000B3A06A20F400507F
:100C500040F48050A06219E0A06A40F48010A062C5
:100C60002B49091F2068884203D028492068884200
:100C700004D12748006800F4806000E0002028B11B
:100C8000A06A20F4005040F48050A062A06A00F4F2
:100C9000805020B1E06A20F00600E06201E0002010
:100CA000E06200BF002084F8240000BFC01E21685D
:100CB00008602068806800F46020B0F5602F16D1CD
:100CC00012492068884208D11148006800F4702059
:100CD00008B9012002E0002000E0012038B12068BE
:100CE000806840F4A000216888600CE006E020687D
:100CF000806840F480102168886004E000BF002014
:100D000084F8240000BF284675E700000028014051
:100D10000424014070B50446002594F821000228FF
:100D200003D00420A063012548E02068006820F07B
:100D30000E00216808602068006820F0010021682A
:100D400008601F492068884201D1012026E01C4923
:100D500014312068884201D110201FE01849283141
:100D60002068884201D1801518E015493C3120687F
:100D7000884201D1801411E0114950312068884225
:100D800002D14FF4803009E00D4964312068884277
:100D900002D14FF4801001E04FF08070084908390B
:100DA0004860012084F8210000BF002084F8200062
:100DB00000BF606B10B12046616B8847284670BD4C
:100DC0000800024070B5044600F018FA06462546B1
:100DD000681C10B104480078054400BF00F00EFA0A
:100DE000801BA842FAD370BD60000020B0F5805F80
:100DF0002FD00CDCB0F5807F13D0B0F5007F16D07B
:100E0000B0F5806F19D0B0F5006F3AD11BE0B0F5A6
:100E1000005F24D0B0F5804F27D0B0F5004F30D11F
:100E200029E019490988491C174A11802AE0174905
:100E30000988491C154A118024E015490988491C74
:100E4000134A11801EE013490988491C114A118078
:100E500018E011490988491C0F4A118012E00F4916
:100E60000988491C0D4A11800CE00D490988491C6C
:100E70000B4A118006E00B490988491C094A118078
:100E800000E000BF00BF70471400002016000020E3
:100E9000180000201A0000201C0000201E00002066
:100EA000200000202200002010B5044604480068FD
:100EB000204020B1024804602046FFF797FF10BD94
:100EC000140401402DE9F8470346002400200025C2
:100ED0008446002700226EE14FF0010808FA02F470
:100EE000D1F8008008EA0400A0427DD1DFF8D0A24A
:100EF000D1F80480A8EB0A09D0453AD014DCB8F147
:100F0000030F50D009DCB8F1000F31D0B8F1010F58
:100F10001CD0B8F1020F49D120E0B8F1110F18D060
:100F2000B8F1120F42D11EE0B9F5881F25D006DCBA
:100F3000B9F5803F20D0B9F5801F37D11AE0B9F557
:100F4000001F18D0B9F5041F30D117E0D1F80CC03C
:100F50002DE0D1F80C8008F1040C28E0D1F80C80C9
:100F600008F1080C23E0D1F80C8008F10C0C1EE00D
:100F700000BF00BF00BF00BF00BF00BFD1F80880A6
:100F8000B8F1000F02D14FF0040C0BE0D1F808804B
:100F9000B8F1010F03D14FF0080C1C6102E04FF0D3
:100FA000080C5C6103E04FF0000C00E000BF00BFE4
:100FB000FF2801D8984601E003F104084646FF28BF
:100FC00002D84FEA820803E0A2F108084FEA880835
:100FD0004746D6F800804FF00F0909FA07F928EACA
:100FE00009080CFA07F900E088E048EA0908C6F8A1
:100FF0000080D1F8048008F08058B8F1805F7DD17E
:1010000000BFDFF8C081D8F8188048F00108DFF889
:10101000B491C9F81880C846D8F8188008F00108BB
:10102000CDF8008000BF00BF4FEAB9384FEA9209FF
:1010300058F829504FEA82784FEA18794FF00F0894
:1010400008FA09F825EA0805DFF87C81434502D152
:101050004FF0000816E0DFF87481434502D14FF0ED
:1010600001080FE0DFF86881434502D14FF0020824
:1010700008E0DFF86081434502D14FF0030801E04A
:101080004FF004084FEA82794FEA197908FA09F813
:1010900048EA0505DFF840814FEA920948F82950EF
:1010A000D1F8048008F48038B8F5803F0AD1DFF821
:1010B0002C81D8F8008048EA0008DFF82091C9F8B0
:1010C000008009E0DFF81481D8F8008028EA0008E1
:1010D000DFF80891C9F80080D1F8048008F40038DE
:1010E000B8F5003F10D1DFF8F48008F10408D8F813
:1010F000008048EA0008DFF8E49000E05AE009F1D7
:101100000409C9F800800DE0DFF8D08008F1040878
:10111000D8F8008028EA0008DFF8C09009F1040937
:10112000C9F80080D1F8048008F48018B8F5801F51
:101130000ED1DFF8A88008F10808D8F8008048EA46
:101140000008DFF8989009F10809C9F800800DE05F
:10115000DFF8888008F10808D8F8008028EA00083D
:10116000DFF8789009F10809C9F80080D1F8048007
:1011700008F40018B8F5001F0ED1DFF8608008F100
:101180000C08D8F8008048EA0008DFF8509009F110
:101190000C09C9F800800DE0DFF8408008F10C0868
:1011A000D8F8008028EA0008DFF8309009F10C092F
:1011B000C9F80080521C102AFFF48EAEBDE8F887F3
:1011C000000011100010024000080140000C014016
:1011D00000100140001401400800014000040140DB
:1011E000024693680B400BB1012000E000207047DD
:1011F0000AB1016101E00B04036170470148006816
:10120000704700005800002003480068034909782F
:101210000844014908607047580000206000002021
:1012200010B50848006840F0100006490860032027
:1012300000F0C2F8002000F007F800F02BF80020C2
:1012400010BD00000020024070B504460E48007832
:101250004FF47A71B1FBF0F00C490968B1FBF0F57D
:10126000284600F05CFD08B1012070BD102C07D2AB
:1012700000222146501E00F060F80548046001E09D
:101280000120F2E70020F0E7600000206400002069
:101290005C00002008B500BF1F48806940F00100D5
:1012A0001D4988610846806900F00100009000BF78
:1012B00000BF032000F080F8002211466FF00B0001
:1012C00000F03BF8002211466FF00A0000F035F8FC
:1012D000002211466FF0090000F02FF8002211469D
:1012E000501F00F02AF800221146101F00F025F8C8
:1012F00000221146901E00F020F800221146501ED8
:1013000000F01BF800BF0549486820F0E06040F09D
:101310000070486000BF08BD00100240000001409E
:1013200000BF00F01F02012191404209920002F12A
:10133000E022C2F8001100BF70472DE9F05F80463F
:101340000D461646002701F0D9FB074639462A46C6
:10135000334601F00700C0F1070ABAF1040F02D9C1
:101360004FF0040A01E0C0F1070AD14600F1040A77
:10137000BAF1070F02D24FF0000A01E0A0F1030A10
:10138000D4464FF0010A0AFA09FAAAF1010A0AEA58
:10139000020A0AFA0CFA4FF0010B0BFA0CFBABF144
:1013A000010B0BEA030B4AEA0B042146404601F00D
:1013B000ADFBBDE8F09F000000BF00F00702064B48
:1013C00019684FF6FF031940044B0B4343EA02210F
:1013D000014B196000BF70470CED00E00000FA05FA
:1013E0002DE9F04385B006463DA30FCB01AC0FC4F9
:1013F0003FA0006800904FF000080025002700245F
:10140000A146012E30D0022E58D0102E61D139487D
:101410004468006800F0807000B301A8C4F3834101
:10142000475C04F4803070B132484068C0F34040FB
:101430001DF8008004F4803040B12F48B0FBF8F074
:1014400000FB07F502E02D4807FB00F5294840683E
:1014500000F48000B0F5800F01D1A94603E06800D8
:101460000321B0FBF1F935E02248046A04F440702E
:10147000B0F5807F05D104F0020010B14FF40049AF
:101480001BE004F44070B0F5007F07D11948406AB2
:1014900000F0020010B149F640490EE004F440703B
:1014A000B0F5407F07D11348006800F4003010B158
:1014B0004FF2244901E04FF000090BE000F0A0F9E1
:1014C0000C494968C1F38131491C4900B0FBF1F96D
:1014D00000E000BF00BF484605B0BDE8F083000053
:1014E00002030405060708090A0B0C0D0E0F101065
:1014F000010200000010024000127A0000093D00C5
:10150000F8B5044600260025207800F001000028E8
:101510006BD000274348C06900F0805070B900BF0D
:101520004048C06940F080503E49C8610846C069E3
:1015300000F08050009000BF00BF01273A480068CB
:1015400000F48070B0B93848006840F480703649C3
:101550000860FFF753FE064606E0FFF74FFE801BCC
:10156000642801D90320F8BD2F48006800F480707A
:101570000028F2D02B48006A00F440752DB3A088F3
:1015800000F44070A84220D02648006A20F440753C
:10159000012026490860002008602248056205F005
:1015A000010090B1FFF72AFE064608E0FFF726FE8D
:1015B000801B41F28831884201D90320D3E71948C2
:1015C000006A00F002000028F0D01648006A20F4FB
:1015D00040706168084313490862012F04D108462E
:1015E000C06920F08050C86100BF207800F0020080
:1015F000022807D10B48406820F44040A168084306
:1016000008494860207800F01000102807D10548EC
:10161000406820F48000E1680843024948600020E7
:10162000A1E7000000100240007000404004424268
:1016300070B504460D4600266248006800F00700B9
:10164000A8420ED25F48006820F0070028435D4999
:1016500008600846006800F00700A84201D0012099
:1016600070BD207800F00200022807D1564840687B
:1016700020F0F000A168084353494860207800F04A
:10168000010000285DD06068012806D14E4800683E
:1016900000F4003090B90120E2E76068022806D12A
:1016A0004948006800F0007040B90120D8E746487A
:1016B000006800F0020008B90120D1E74248406804
:1016C00020F00300616808433F494860FFF796FD3A
:1016D00006466068012810D108E0FFF78FFD801BE7
:1016E00041F28831884201D90320B9E73648406881
:1016F00000F00C000428F0D123E06068022810D12B
:1017000008E0FFF77BFD801B41F28831884201D958
:101710000320A5E72C48406800F00C000828F0D111
:101720000FE008E0FFF76AFD801B41F28831884234
:1017300001D9032094E72448406800F00C000028F9
:10174000F0D12048006800F00700A8420ED91D48DB
:10175000006820F0070028431A490860084600681E
:1017600000F00700A84201D0012079E7207800F0BE
:101770000400042807D11448406820F4E060E168C0
:10178000084311494860207800F00800082808D173
:101790000D48406820F46050216940EAC1000A49C0
:1017A000486000F03DF808494968C1F30311074A51
:1017B000515CC840064908600020FFF745FD002045
:1017C0004EE700000020024000100240EC440008F8
:1017D0006400002001480068704700006400002099
:1017E00000B5FFF7F7FF04494968C1F30221034A36
:1017F000515CC84000BD000000100240FC440008DD
:1018000000B5FFF7E7FF04494968C1F3C221034A65
:10181000515CC84000BD000000100240FC440008BC
:10182000F0B585B00FF26C0C9CE8E01001A8A0E8C0
:10183000E0101CA52D680095002100220023002443
:101840000020194D696801F00C05F5B1042D02D096
:10185000082D19D101E0154819E001ADC1F3834607
:10186000AC5D01F4803555B10F4D6D68C5F3404551
:101870001DF805200D4D6543B5FBF2F302E00C4D5C
:1018800004FB05F3184602E000BF084800BF00BF94
:1018900005B0F0BD02030405060708090A0B0C0D8C
:1018A0000E0F1010010200000010024000127A001A
:1018B00000093D00F8B504460025207800F001003D
:1018C000002878D0F848406800F00C0004280CD0BC
:1018D000F548406800F00C00082811D1F248406833
:1018E00000F48030B0F5803F0AD1EF48006800F482
:1018F000003000285FD0606800285CD10120F8BD6E
:1019000000BF6068B0F5803F06D1E748006840F44A
:101910008030E549086028E0606858B9E24800680E
:1019200020F48030E04908600846006820F48020F8
:1019300008601AE06068B0F5A02F0BD1DA480068A3
:1019400040F48020D84908600846006840F48030A0
:1019500008600AE0D448006820F48030D24908606A
:101960000846006820F48020086000BF606888B1E5
:10197000FFF744FC054606E0FFF740FC401B6428E7
:1019800001D90320BBE7C848006800F400300028F4
:10199000F2D010E0FFF732FC054606E0FFF72EFC20
:1019A000401B642801D90320A9E7BF48006800F460
:1019B00000300028F2D1207800F00200022857D130
:1019C000B948406800F00C0050B1B748406800F0DA
:1019D0000C00082818D1B448406800F4803098B949
:1019E000B148006800F0020020B12069012801D050
:1019F000012084E7AC48006820F0F800616940EA03
:101A0000C100A949086033E02069E8B10120A74975
:101A10000860FFF7F3FB054606E0FFF7EFFB401B0E
:101A2000022801D903206AE79F48006800F00200FD
:101A30000028F2D09C48006820F0F800616940EA74
:101A4000C1009949086013E0002098490860FFF739
:101A5000D5FB054606E0FFF7D1FB401B022801D964
:101A600003204CE79048006800F002000028F2D103
:101A7000207800F0080008282DD1A069B8B1012015
:101A80008B490860FFF7BAFB054606E0FFF7B6FB97
:101A9000401B022801D9032031E78348406A00F047
:101AA00002000028F2D0012001F046F813E00020E7
:101AB0007F490860FFF7A2FB054606E0FFF79EFBA3
:101AC000401B022801D9032019E77748406A00F03B
:101AD00002000028F2D1207800F00400042873D11D
:101AE00000267148C06900F0805070B900BF6E4890
:101AF000C06940F080506C49C8610846C06900F078
:101B00008050009000BF00BF01266A48006800F4C2
:101B10008070B0B96748006840F48070654908601B
:101B2000FFF76CFB054606E0FFF768FB401B6428E7
:101B300001D90320E3E65F48006800F480700028C4
:101B4000F2D000BFE068012806D15748006A40F093
:101B500001005549086227E0E06858B95248006A18
:101B600020F00100504908620846006A20F0040095
:101B7000086219E0E06805280BD14B48006A40F084
:101B80000400494908620846006A40F00100086202
:101B90000AE04548006A20F001004349086208460F
:101BA000006A20F00400086200BFE068A0B1FFF7FF
:101BB00025FB054609E0FFF721FB401B41F2883178
:101BC000884202D903209AE622E03748006A00F0F2
:101BD00002000028EFD012E0FFF710FB054608E0F6
:101BE000FFF70CFB401B41F28831884201D90320EA
:101BF00085E62D48006A00F002000028F0D1012E91
:101C000005D12948C06920F080502749C86100BF2C
:101C1000E069C8B32448406800F00C00082860D090
:101C2000E069022848D1002020490866FFF7E6FA5B
:101C3000054606E0FFF7E2FA401B022801D903201F
:101C40005DE61948006800F000700028F2D1206AB3
:101C5000B0F5803F07D11448406820F40030A168F7
:101C6000084311494860D4E9080108430E4949680E
:101C700021F4741108430C49486001200B4908669F
:101C8000FFF7BCFA054607E02DE0FFF7B7FA401B67
:101C9000022801D9032032E60348006800F00070F2
:101CA0000028F2D01FE00000001002400000424275
:101CB000800442420070004000200C490866FFF793
:101CC0009DFA054606E0FFF799FA401B022801D964
:101CD000032014E60648006800F000700028F2D1E6
:101CE00001E001200BE6002009E60000000042426E
:101CF00000100240042808D14FF0E021096941F0AA
:101D000004014FF0E022116107E04FF0E021096982
:101D100021F004014FF0E02211617047704770B567
:101D200004462546681EB0F1807F01D301200FE0F4
:101D3000681E4FF0E02148610F214FF0FF3000F0A6
:101D4000E5FE00204FF0E0218861072008610020B7
:101D500070BD10B5FFF7E2FF10BD70477047024637
:101D600000BF92F83C00012801D1022070470120F9
:101D700082F83C0000BF022082F83D0010684068F5
:101D800020F0700013685860106840680B681843B2
:101D9000136858601068806820F0800013689860AD
:101DA000106880684B68184313689860012082F8B7
:101DB0003D0000BF002082F83C0000BF00BFD5E717
:101DC00010B504460CB9012010BD94F83D0028B9A7
:101DD000002084F83C00204600F00CF8022084F833
:101DE0003D00211D206801F06BF8012084F83D00C2
:101DF0000020E9E738B504460D492068884215D12E
:101E000000BF0C48806940F400600A4988610846B8
:101E1000806900F40060009000BF00BF0022032131
:101E20001920FFF78AFA1920FFF77AFA38BD000067
:101E3000002C01400010024001460868C06840F0D4
:101E400001000A68D0600868006840F001000A6874
:101E50001060002070472DE9F04104460D46002631
:101E600000BF94F83C00012802D10220BDE8F081B7
:101E7000012084F83C0000BF022084F83D00206867
:101E8000866826F0770626F47F46206886602868F4
:101E900050283BD00CDC202860D004DC002853D034
:101EA000102865D155E030285DD0402860D141E050
:101EB000602835D070280DD0B0F5805F03D0B0F524
:101EC000005F55D115E02068806820F00700216888
:101ED00088604EE0D5E902136A68206801F038F89E
:101EE0002068866826F0770646F0770620688660C8
:101EF0003FE0D5E902136A68206801F029F82068FC
:101F0000806840F480402168886032E0EA6869684F
:101F1000206801F0FBF85021206801F025F828E046
:101F2000EA686968206801F006F96021206801F01C
:101F30001BF81EE0EA686968206801F0E7F84021B4
:101F4000206801F011F814E00021206801F00CF87D
:101F50000FE01021206801F007F80AE02021206836
:101F600001F002F805E03021206800F0FDFF00E0FC
:101F700000BF00BF012084F83D0000BF002084F8AE
:101F80003C0000BF00BF71E7704710B504462068F1
:101F90000069C0F34000D8B12068C068C0F34000B9
:101FA000B0B16FF00200216808610120207720683D
:101FB000806900F0030018B12046FFF7E5FF05E057
:101FC000204600F0BFF8204600F072F9002020778C
:101FD00020680069C0F38000D8B12068C068C0F3F1
:101FE0008000B0B16FF00400216808610220207702
:101FF0002068806900F4407018B12046FFF7C4FFE4
:1020000005E0204600F09EF8204600F051F900203F
:10201000207720680069C0F3C000D8B12068C0688C
:10202000C0F3C000B0B16FF008002168086104205F
:1020300020772068C06900F0030018B12046FFF740
:10204000A3FF05E0204600F07DF8204600F030F9BF
:102050000020207720680069C0F30010D8B1206804
:10206000C068C0F30010B0B16FF0100021680861C3
:10207000082020772068C06900F4407018B120461D
:10208000FFF782FF05E0204600F05CF8204600F0F4
:102090000FF9002020772068006900F0010058B196
:1020A0002068C06800F0010030B16FF001002168C5
:1020B0000861204600F05CF920680069C0F3C01098
:1020C00058B12068C068C0F3C01030B16FF0800014
:1020D000216808612046FFF740FE20680069C0F3D0
:1020E000801058B12068C068C0F3801030B16FF024
:1020F000400021680861204600F074F920680069FA
:10210000C0F3401058B12068C068C0F3401030B12F
:102110006FF02000216808612046FFF71FFE10BD08
:102120001FB504462068B0F1804F07D1022000900F
:102130000190039069460248FEF7C4FE1FBD0000EF
:1021400000080140704770B504460D46164600BFB2
:1021500094F83C00012801D1022070BD012084F8D0
:102160003C0000BF022084F83D0036B1042E1BD095
:10217000082E31D00C2E5ED145E02946206800F0B3
:10218000FDFE2068806940F00800216888612068B1
:10219000806920F0040021688861206880692969CD
:1021A00008432168886147E02946206800F018FF4D
:1021B0002068806940F40060216888612068806937
:1021C00020F480602168886120688069296940EA7C
:1021D0000120216888612FE02946206800F038FF3F
:1021E0002068C06940F008002168C8612068C069A3
:1021F00020F004002168C8612068C069296908438B
:102200002168C86118E02946206800F057FF20685F
:10221000C06940F400602168C8612068C06920F48A
:1022200080602168C8612068C069296940EA01208E
:102230002168C86100E000BF00BF012084F83D00B4
:1022400000BF002084F83C0000BF00BF85E710B548
:1022500004460CB9012010BD94F83D0028B90020B7
:1022600084F83C00204600F00DF8022084F83D0080
:10227000211D206800F024FE012084F83D0000208C
:10228000E9E7000008B50168B1F1804F0DD100BF4A
:102290000649C96941F00101044AD1611146C96981
:1022A00001F00101009100BF00BF08BD0010024015
:1022B0007047000030B504460D46012229462068CB
:1022C00000F038FE0A492068884201D1012000E070
:1022D000002028B12068406C40F400402168486428
:1022E0002068006840F0010021680860002030BDCF
:1022F000002C014030B504460D46002229462068D6
:1023000000F018FE19492068884201D1012000E040
:10231000002090B100BF2068006A41F2111108400E
:1023200050B92068006A8910084028B92068406CBC
:1023300020F400402168486400BF00BF2068006AA4
:1023400041F21111084050B92068006A8910084014
:1023500028B92068006820F001002168086000BFEB
:10236000012084F83D00002030BD0000002C014019
:10237000144A01681268914222D11349097811B9AF
:1023800012490978E1B112490978491CC9B2104AC9
:102390001170962904DB0021117001210D4A117082
:1023A0000D49097861B10D490978491CC9B20B4A38
:1023B0001170022904DB002111700121084A1170FB
:1023C0007047000098000020050000200600002053
:1023D0000E00002011000020100000200F0000203F
:1023E00012000020704770472DE9F047044620682E
:1023F00005682068C668206847694FF00008C14634
:1024000005F00F08B8F1000F0AD105F0200038B12F
:1024100006F0200020B1204600F0CDFEBDE8F08798
:10242000B8F1000F6DD007F0010018B906F49070F4
:10243000002866D005F0010030B106F4807018B1B4
:10244000E06B40F00100E06305F0040030B107F0FC
:10245000010018B1E06B40F00200E06305F00200FB
:1024600030B107F0010018B1E06B40F00400E06308
:1024700005F0080030B107F0010018B1E06B40F042
:102480000800E063E06B68B305F0200028B106F0B7
:10249000200010B1204600F08EFE20684069C0F395
:1024A0008019E06B00F0080010B9B9F1000F22D0DC
:1024B000204600F060FE2068406900F04000B0B1A6
:1024C0002068406920F0400021684861606B50B18D
:1024D0001748616B4863606BFEF71CFC10B1606BC2
:1024E000416B88470CE02046FFF77DFF08E020465F
:1024F000FFF779FF04E02046FFF775FF0020E06357
:102500008CE705F0800030B106F0800018B120465D
:1025100000F088FF82E705F0400030B106F040008F
:1025200018B1204600F037FE78E700BF76E70000DC
:102530006331000810B504460CB9012010BDA06934
:1025400000B100E000BF94F8390028B9002084F8F9
:102550003800204600F028F8242084F8390020684C
:10256000C06820F400502168C860204600F076FE64
:102570002068006920F49040216808612068406963
:1025800020F02A00216848612068C06840F40050AB
:102590002168C8600020E063202084F8390084F8B6
:1025A0003A000020CAE7000010B586B0044618497A
:1025B0002068884229D100BF1648806940F48040D5
:1025C000144988610846806900F48040019000BF8A
:1025D00000BF48150290022003900320059002A935
:1025E0000D48FEF76FFC4FF48060029000200390CE
:1025F000049002A90848FEF765FC0022022125206C
:10260000FEF79BFE2520FEF78BFE06B010BD0000F6
:1026100000380140001002400008014010B5034698
:1026200093F83A0020282FD101B10AB9012010BD3A
:1026300000BF93F83800012801D10220F7E70120FC
:1026400083F8380000BF99629A85DA850020D86344
:10265000222083F83A0000BF002083F8380000BF32
:102660001868C06840F480701C68E06018684069B1
:1026700040F001001C6860611868C06840F02000EC
:102680001C68E0600020D2E70220D0E710B50446C5
:102690002C4920680968884253D12B480078401C97
:1026A000294908700846007801280AD1274800788F
:1026B000A52802D12649087043E00020224908706D
:1026C0003FE02148007802280AD1204800785A28A3
:1026D00002D11F49487034E000201B49087030E0E7
:1026E00019480078032809D118480078401D194975
:1026F0000870164800781649887022E01248007861
:102700001449097888420DD1104801780E480078A4
:10271000401E0F4A115400200B490870104601F06A
:1027200063FE0EE008480078322803DD00200649E9
:10273000087006E00548017803480078401E044A06
:10274000115410BD18010020000000205700002087
:102750002E060020010000202DE9F84304460D4616
:1027600016461F464FF0000994F8390020285CD126
:1027700005B116B90120BDE8F88300BF94F8380010
:10278000012801D10220F6E7012084F8380000BFBB
:102790000020E063212084F83900FEF72FFD8146F8
:1027A000A684E6842BE0E08C401EE084A068B0F5AF
:1027B000805F16D14B46002280212046009700F012
:1027C00065FE08B10320D6E7A846B8F80000C0F3BC
:1027D000080021684860206908B9AD1C0FE06D1C35
:1027E0000DE04B46002280212046009700F04EFE6F
:1027F00008B10320BFE715F8010B21684860E08CA1
:102800000028D0D14B46002240212046009700F0FE
:102810003DFE08B10320AEE7202084F8390000BF58
:10282000002084F8380000BFA5E70220A3E7704726
:1028300000BFFEE70EB51448144908600021134894
:102840008160C16041614FF46021C16100200F4986
:10285000486001210D480161FEF744F818B1E921F3
:102860000BA000F059FE04200090012001900720E9
:10287000029069460548FDF781FF18B1F32104A0D5
:1028800000F04AFE0EBD0000002401406800002058
:102890002E2E2F5372632F6D61696E2E6300000020
:1028A00000B585B000BF2E48806940F020002C495B
:1028B00088610846806900F02000009000BF00BFDA
:1028C00000BF0846806940F00400886108468069BE
:1028D00000F00400009000BF00BF00BF0846806900
:1028E00040F0080088610846806900F00800009008
:1028F00000BF00BF002201211A48FEF779FC012227
:102900000C211848FEF774FC0D2001900120029064
:102910000220049001A91348FEF7D4FA0320019085
:10292000002002900120039001A90F48FEF7CAFA87
:1029300080200190012002900320049001A90A4800
:10294000FEF7C0FA4FF47F40019008480290012042
:10295000039001A90448FEF7B5FA05B000BD0000D8
:102960000010024000080140000C0140000021104E
:1029700010B5002202212820FEF7DFFC2820FEF7F8
:10298000CFFC002202211720FEF7D7FC1720FEF70C
:10299000C7FC10BD00B587B019481A490860482027
:1029A000486000211748816042F21071C160002127
:1029B000016141618161FFF703FA20B14FF4847135
:1029C00011A000F0A9FD4FF48050039003A90D4819
:1029D000FFF741FA20B14FF487710BA000F09CFD86
:1029E00000200190029001A90648FFF7B8F920B134
:1029F00040F2151104A000F08FFD07B000BD0000EB
:102A0000002C0140980000202E2E2F5372632F6D52
:102A100061696E2E6300000000B589B04FF0804000
:102A20001C4908604720486000211A4881606321E2
:102A3000C160002101618161FFF709FC20B140F212
:102A4000291115A000F068FD00200790089007A943
:102A50001048FFF784F920B14FF498710EA000F0F0
:102A60005BFD602000901420019002200290002065
:102A70000490042269460748FFF765FB20B140F245
:102A8000391105A000F048FD0248FFF749FB09B0E5
:102A900000BD0000D80000202E2E2F5372632F6D32
:102AA00061696E2E6300000010B50C480C49086087
:102AB0004FF4E1304860002109488160C160016144
:102AC0000C21416100218161C161FFF733FD20B11B
:102AD0004FF4A77103A000F01FFD10BD00380140A6
:102AE000180100202E2E2F5372632F6D61696E2EF8
:102AF0006300000000BFFEE7704700000248006866
:102B0000C0F30220704700000CED00E010B5002873
:102B100007DA0A07140E054A00F00F031B1FD454EE
:102B200003E00A07130E024A135410BD18ED00E02B
:102B300000E400E07047000008B508490968C908CA
:102B40004FF47A72B1FBF2F14143009100BF00BF34
:102B500000994A1E00920029F9D108BD64000020A6
:102B600070B505460024142000F05EF80446BCB998
:102B70000C48006940F002000A49086108464561B6
:102B8000006940F040000861142000F04DF8044650
:102B9000012C05D00348006920F0020001490861BA
:102BA000204670BD002002400948C16801F00100C4
:102BB00008B10120704701F0040008B10220F9E7D4
:102BC00001F0100008B10320F4E70020F2E7000054
:102BD000002002400348006940F08000014908617C
:102BE000704700000020024030B503460C461546F1
:102BF000002207E0184600F008F824F812009B1C99
:102C0000501C82B2AA42F5DB30BD014608887047ED
:102C100002480349486003484860704723016745FC
:102C200000200240AB89EFCD70B5044600BFFFF72E
:102C3000BBFF0546012D00D006E00120FEF7C2F8DB
:102C4000601E84B2002CF2D100BF04B9FF252846D3
:102C500070BD00002DE9F05F80468A461746B8F146
:102C6000006F02D33348804501D3BDE8F09FFFF7E2
:102C7000CFFFA8F1006B4FEA9B25CBF34809C9F5BC
:102C80000074A74200DC3C464EE04FF0006101EBCF
:102C900085208A142849FFF7A7FF00260BE009EBDF
:102CA0000600254931F810004FF6FF71884200D028
:102CB00003E0701C86B2A642F1DB00BFA6421BDA1D
:102CC0004FF0006101EB8520FFF74AFF002608E086
:102CD0003AF8160006EB0901174A22F81100701C99
:102CE00086B2A642F4DB4FF0006101EB85208A1426
:102CF000114900F043F804E022465146404600F0F6
:102D00003DF8A74200D110E06D1C4FF000090AEB1E
:102D1000440A08EB4408381B87B2B7F5007F02DD90
:102D20004FF4007400E03C46AFE700BFFFF752FFEE
:102D300000BF9AE7000002087C01002070B505463C
:102D40000E46FF20FFF770FF044694B90A48006959
:102D500040F00100084908612E80FF20FFF764FF62
:102D60000446012C05D00448006920F00100024906
:102D70000861204670BD0000002002402DE9F041AE
:102D800005460E461746002407E036F8141028467C
:102D9000FFF7D4FFAD1C601C84B2BC42F5DBBDE87C
:102DA000F081704710B5FEF72FFAFEF7D2FF10BD85
:102DB00010B594B001200A9000040B9000200C90F4
:102DC00001200E9002201190C10312914FF4E011E6
:102DD00013910AA8FEF76EFD18B1A6211AA000F003
:102DE0009BFB0F20059002200690002007904FF4D7
:102DF0008060089000200990022105A8FEF718FCC9
:102E000018B1B42110A000F087FB022001908003CC
:102E1000039001A8FEF774FB18B1BB210AA000F0D3
:102E20007BFBFEF7D7FC4FF47A71B0FBF1F4204640
:102E3000FEF775FF0420FEF75DFF00221146501ECD
:102E4000FEF77BFA14B010BD2E2E2F5372632F6D38
:102E500061696E2E630000001148006840F00100B7
:102E60000F490860084640680E4908400C49486010
:102E7000084600680C49084009490860084600688F
:102E800020F4802008600846406820F4FE00486076
:102E90004FF41F008860C8030449086070470000B1
:102EA000001002400000FFF8FFFFF6FE08ED00E012
:102EB00010B50248FFF769F810BD00009800002027
:102EC00000220268184B984208D0B0F1804F05D01C
:102ED000164B984202D0164B984203D122F0700252
:102EE0004B681A43104B984208D0B0F1804F05D080
:102EF0000E4B984202D00E4B984203D122F44072FE
:102F0000CB681A4322F080024B691A4302608B6837
:102F1000C3620B688362044B984201D10B6903635F
:102F20000123436170470000002C01400004004071
:102F30000008004030B50023012404FA01F3046ABC
:102F40009C430462046A02FA01F52C43046230BD1A
:102F500030B50C460021816821F47F4142EA032507
:102F600025432943816030BD0A460021816821F054
:102F7000700142F0070319438160704730B50024A7
:102F800000220023056A25F001050562026A4368F4
:102F9000846924F0700424F003040D682C4322F0AB
:102FA00002028D682A430D4DA84206D100BF22F0CF
:102FB0000802CD682A4322F00402084DA84207D136
:102FC00023F4807323F400734D692B438D692B43E5
:102FD000436084614D684563026230BD002C01404E
:102FE00030B5002400220023056A25F01005056293
:102FF000026A4368846924F4E04424F440740D6850
:1030000044EA052422F020028D6842EA05120F4DA1
:10301000A84207D100BF22F08002CD6842EA051223
:1030200022F04002094DA84209D123F4806323F421
:1030300000634D6943EA85038D6943EA8503436074
:1030400084614D688563026230BD0000002C014040
:1030500030B5002400220023056A25F4807505623E
:10306000026A4368C46924F0700424F003040D6804
:103070002C4322F400728D6842EA05220E4DA842CC
:1030800007D100BF22F40062CD6842EA052222F493
:103090008062094DA84209D123F4805323F40053E0
:1030A0004D6943EA05138D6943EA05134360C46122
:1030B0004D68C563026230BD002C014030B500226E
:1030C00000230024056A25F480550562036A4468DC
:1030D000C26922F4E04222F440720D6842EA0522FD
:1030E00023F400538D6843EA0533074DA84204D109
:1030F00024F480444D6944EA85144460C2614D68FB
:103100000564036230BD0000002C014030B50B4661
:10311000144600210022026A056A25F001050562B5
:10312000816921F0F00141EA041122F00A021A43F8
:103130008161026230BD30B50B4614460021002289
:10314000056A25F0100505628169026A21F4704163
:1031500041EA043122F0A00242EA031281610262D4
:1031600030BD70B505466C6A0020E085E0842046DD
:10317000FFF739F970BD0168C96821F490710268E0
:10318000D1600168496921F0010102685161202183
:1031900080F83A10704710B504462068C06820F0E7
:1031A00040002168C860202084F839002046FFF7DD
:1031B0003EFB002010BD70B5044694F83A0022286A
:1031C0004AD1A068B0F5805F13D1A56A206940B9E3
:1031D00020684068C0F308002880A06A801CA062B4
:1031E00019E020684068C0B22880A06A401CA06234
:1031F00011E0206938B920684068C1B2A26A501C49
:10320000A062117007E02068406800F07F01A26AA8
:10321000501CA0621170E08D401E80B2E085C8B9DC
:103220002068C06820F020002168C8602068C0685D
:1032300020F480702168C8602068406920F0010097
:1032400021684861202084F83A002046FFF71EFAE2
:10325000002070BD0020FCE70220FAE72DE9F041D4
:10326000044600252068006920F44050E1680843C6
:10327000216808612169A068084361690843054322
:103280002068C06841F20C61884328432168C86007
:103290002068406920F44070A169084321684861B2
:1032A0005F49206888425CD1FEF7AAFA00EBC001B2
:1032B00001EB001061688900B0FBF1F6FEF7A0FA9F
:1032C00000EBC00101EB001061688900B0FBF1F078
:1032D0006421B0FBF1F000EBC00101EB0010A6EBA4
:1032E0008000322101EB00106421B0FBF1F000F00E
:1032F000F006FEF785FA00EBC00101EB00106168F3
:103300008900B0FBF1F06421B0FBF1F006EB001690
:10331000FEF776FA00EBC00101EB0010616889004E
:10332000B0FBF1F7FEF76CFA00EBC00101EB001007
:1033300061688900B0FBF1F06421B0FBF1F000EBB3
:10334000C00101EB0010A7EB8000322101EB00105F
:103350006421B0FBF1F000F00F0030442168886078
:103360005BE0FEF73DFA00EBC00101EB0010616885
:103370008900B0FBF1F6FEF733FA00EBC00101EB78
:10338000001061688900B0FBF1F06421B0FBF1F03E
:1033900000EBC00101EB0010A6EB8000322101EB35
:1033A00000106421B0FBF1F000F0F006FEF718FA0F
:1033B00000EBC00101EB001061688900B0FBF1F087
:1033C0006421B0FBF1F006EB0016FEF709FA00EB02
:1033D000C00101EB001061688900B0FBF1F7FEF756
:1033E000FFF900EBC00101EB001061688900B0FB40
:1033F000F1F06421B0FBF1F000EBC00101EB001033
:10340000A7EB8000322101EB00106421B0FBF1F04A
:1034100000F00F00304421688860BDE8F0810000B2
:1034200000380140014691F8390021282CD18868E4
:10343000B0F5805F0FD10A6A1088C0F308000B68EE
:103440005860086918B9086A801C086209E0086AAF
:10345000401C086205E00B6A581C086218780B686B
:103460005860C88C401E80B2C88458B90868C068CB
:1034700020F080000B68D8600868C06840F0400009
:103480000B68D860002070470220FCE72DE9F0416E
:1034900004460D4617469846069E21E0701CF8B17A
:1034A0002EB1FDF7ABFEA0EB0800B04218D92068A2
:1034B000C06820F4D0702168C8602068406920F09E
:1034C000010021684861202084F8390084F83A001E
:1034D00000BF002084F8380000BF0320BDE8F08161
:1034E000206800682840A84201D1012000E00020A7
:1034F000B842D3D00020F1E710B50448FEF774FFBE
:10350000012203490148FFF789F810BD1801002086
:103510005700002000BFFEE700BFFEE702E008C83A
:10352000121F08C1002AFAD170477047002001E03D
:1035300001C1121F002AFBD170470000012802D1EF
:10354000374A117016E0022807D1364A1278022A4B
:1035500002D1354A11700DE07047FF280AD1314A77
:103560001278022A04D1304A11702D4A117001E0FC
:103570002B4A11702A4A127812B12B4A12781ABBC0
:1035800000222A4B1A702A4B1A702A4B1A702A4BA7
:103590001A702A4B1A702A4B1A802A4B1A802A4B0F
:1035A0001A802A4B1A802A4B1A802A4B1A802A4BDF
:1035B0001A802A4B1A802A4B1A702A4B1A702A4BEF
:1035C0001A702A4B1A7028E0154A12788AB9164ADE
:1035D0001278012A0DD10022194B1A80194B1A803A
:1035E000194B1A80194B1A801D4B1A701E4B1A70FA
:1035F00013E00B4A1278012A0FD10B4A127862B9F4
:103600000022134B1A80134B1A80134B1A80134B52
:103610001A80144B1A70154B1A7000BF9CE70000FB
:103620000500002007000020060000200E000020FA
:103630000F000020100000201100002012000020C8
:103640001400002016000020180000201A0000209E
:103650001C0000201E00002020000020220000206E
:103660002600002027000020240000202500002044
:1036700010B5ADF5487D6748007810B90DF5487D67
:1036800010BD00241EE0012000F0FAFA00220421FF
:103690006148FDF7ADFD0120FDF794FB012000F02E
:1036A00047FA96A941F824001420FDF78BFB01226C
:1036B00004215948FDF79CFD4FF49670FDF782FBFD
:1036C000601CC4B2322CDEDB00241EE0002000F0BF
:1036D000D7FA002204215048FDF78AFD0120FDF7AA
:1036E00071FB012000F024FA64A941F824001420A1
:1036F000FDF768FB012204214748FDF779FD4FF4EF
:103700009670FDF75FFB601CC4B2322CDEDB002438
:103710001EE0012000F0B4FA002208213E48FDF727
:1037200067FD0120FDF74EFB022000F001FA32A9EF
:1037300041F824001420FDF745FB012208213648FA
:10374000FDF756FD4FF49670FDF73CFB601CC4B2CC
:10375000322CDEDB00241DE0002000F091FA002274
:1037600008212D48FDF744FD0120FDF72BFB022029
:1037700000F0DEF94DF824001420FDF723FB0122B0
:1037800008212548FDF734FD4FF49670FDF71AFB2C
:10379000601CC4B2322CDFDB322396AA1F492048BA
:1037A00000F08FF9322364AA1E491F4800F089F9FE
:1037B000322332AA1D491E4800F083F932236A469B
:1037C0001C491D4800F07DF9154800681B494860F8
:1037D00012480068886014480068C8601148006892
:1037E0000861134800684861104800688861124801
:1037F0000068C8610F48006808620120104908701D
:103800000020044908700222FF21062000F014FB6A
:1038100000BF33E74C0000200008014030000020CA
:103820002C00002038000020340000204000002040
:103830003C000020480000204400002058010020E7
:103840000200002010B510480078E0B100200E49B9
:1038500008700E48007848B10D48007800F010FA62
:10386000012000F05BFA012000F018F80948007808
:1038700048B10948007800F003FA022000F04EFA3F
:10388000022000F00BF810BD110000200500002000
:10389000080000200600002009000020012864D153
:1038A00063490988634A12885143634A1288514325
:1038B000624A1288514300293AD15D4909885D4A1C
:1038C000128811445C4A128811445C4A12881144DF
:1038D00051B95B49097819B103215A4A117032E094
:1038E0000421584A11702EE051490988514A128822
:1038F000514349B950490988504A1288514319B96E
:103900000321504A11701EE049490988494A12882A
:10391000514319B902214B4A117014E046490988F4
:10392000464A1288514371B90121464A11700AE092
:1039300044490978052906D042490978062902D068
:103940000021404A11700021394A1180394A118002
:10395000394A1180394A11803B4A11803B4A118013
:103960003B4A11803B4A118061E002285FD1364911
:103970000988364A12885143354A12885143354ADC
:103980001288514381BB30490988304A128811445A
:103990002F4A128811442F4A1288114451B92E49D6
:1039A000097819B103212D4A11702FE004212B4A07
:1039B00011702BE024490988244A1288514349B9DF
:1039C00023490988234A1288514319B90321234AFC
:1039D00011701BE01C4909881C4A1288514321B907
:1039E00002211E4A117011E009E019490988194A9B
:1039F0001288514351B90121184A117006E0174944
:103A00000978052902D00021144A11700021084AC2
:103A10001180084A1180084A1180084A11800A4A18
:103A200011800A4A11800A4A11800A4A118070479F
:103A30001400002016000020180000201A000020AA
:103A400028000020260000201C0000201E0000206E
:103A50002000002022000020290000202700002054
:103A60002DE9F04389B006460D460027B8460024EC
:103A700006E056F8240001A941F82400601C84B235
:103A8000AC42F6DB294601A800F07EFA012408E0EA
:103A900001A850F824103846FCF754FB0746601C78
:103AA00084B2681EA042F3DCA81EFCF7BAFC814673
:103AB00049463846FCF7D0FB8046404609B0BDE891
:103AC000F0832DE9F04106460F4614461D4629466F
:103AD000204600F059FA681E54F820003060206833
:103AE0003860BDE8F081000001790A4A117041791F
:103AF000094A11708179094A1170C179084A117017
:103B0000017A084A1170417A074A1170817A074A8E
:103B100011707047070000200800002009000020F5
:103B20000A0000200B0000200C0000200D000020E7
:103B300070B50646002500240AE02C46304600F009
:103B400011F8054600212846FCF7A8FC00D104E046
:103B500021462846FCF7ACFCEFD900BF2546284695
:103B600070BD00002DE9FE4F0446204F0420009058
:103B7000012001900720029069461D48FCF7FEFDD8
:103B80001B48FDF72FF80A211948FCF773FF184866
:103B9000FCF7A4FE1FFA80F8012C02D1052000904A
:103BA00001E00620009069461148FCF7E7FD104847
:103BB000FDF718F80A210E48FCF75CFF0C48FCF7EB
:103BC0008DFE85B24046FCF735FC82462846FCF760
:103BD00031FC83463946FCF70DFB81465146FCF724
:103BE0003BFB06463046BDE8FE8F000052B89E3FC4
:103BF0006800002010B50B46541EA1B206E04C1E12
:103C000050F8244040F821404C1EA1B20129F6DAB8
:103C1000036010BDFDF704FBFFF7CAF8FEF740FE96
:103C2000FEF742FFFEF7F8FEFEF7B4FEFEF702FED7
:103C3000FEF79EFE4FF4FA70FDF7C4F800F0B0F8FE
:103C40000D480068C06840F040000B490968C86032
:103C500009480068C06840F0200007490968C8604A
:103C60000648FEF7E9F805E0FFF7ECFDFFF700FD79
:103C700000F01EFCF8E7000018010020980000206A
:103C80002DE9F041064600210C460D4600F09EF954
:103C9000B6B90DE0611C45F100000C4605461A4B13
:103CA000C91A70F1000003D301201849087005E01B
:103CB00002211748FDF794FA0028EBD000BF18E066
:103CC000012E16D10DE0611C45F100000C460546A1
:103CD0000D4BC91A70F1000003D301200B49087085
:103CE00005E001210A48FDF77BFA0028EBD000BF70
:103CF00000BF00F07BF90748007810B901200649A1
:103D00000870BDE8F0810000D0DD0600040000204E
:103D1000000C01404C0000201000002010B50446AB
:103D2000012C05D1002204211948FDF761FA06E0B3
:103D3000022C04D1002208211548FDF759FA012070
:103D4000FDF740F8204600F061F906E011480078E0
:103D500018B91048007800B903E00F48007800282F
:103D6000F4D000BF00200C4908700C490870012CE9
:103D700005D1012204210648FDF73AFA06E0022C9B
:103D800004D1012208210248FDF732FA10BD0000DB
:103D90000008014005000020120000201000002053
:103DA00010B51B48007801280CD001201949087073
:103DB0004FF47A70FDF706F8122216491448FEF700
:103DC00049FF24E0122213491148FEF70DFF114864
:103DD0004068114908600F488068104908600D4824
:103DE000C0680F4908600B4800690E49086009481F
:103DF00040690D490860074880690C49086005481A
:103E0000C0690B4908600348006A0A49086010BD90
:103E100000FC0108580100202C0000203000002088
:103E200034000020380000203C000020400000202A
:103E3000440000204800002070B506460C46154698
:103E4000A5200A4908705A20487003208870084647
:103E5000C6700471457100208871C8714FF47A737F
:103E600008220348FEF778FC70BD0000FC05002026
:103E70001801002010B5A5200B4908705A20487081
:103E8000032088703020C8700848007808710848FE
:103E90000078487100208871C8714FF47A73082245
:103EA0000448FEF759FC10BDFC0500202600002048
:103EB0002700002018010020012802D10D4A1170AE
:103EC00016E0022807D10C4A1278022A02D10B4AC6
:103ED00011700DE07047FF280AD1074A1278022AB4
:103EE00004D1064A1170034A117001E0014A1170B1
:103EF00000BFEFE7080000200700002009000020B5
:103F0000012802D10C4A117015E0022806D10B4A93
:103F10001278022A0FD10A4A11700CE0FF280AD148
:103F2000064A1278022A04D1054A1170024A117019
:103F300001E0014A117070470A00002007000020CC
:103F40000B000020012802D10C4A117015E0022854
:103F500006D10B4A1278022A0FD10A4A11700CE0DE
:103F6000FF280AD1064A1278022A04D1054A1170A4
:103F7000024A117001E0014A117070470C000020E4
:103F8000070000200D0000202DE9F04104460F46F7
:103F9000002517E0681C86B210E054F8261054F88B
:103FA0002500FCF785FA07D254F8258054F826003E
:103FB00044F8250044F82680701C86B2BE42ECDB33
:103FC000681C85B2BD42E5DBBDE8F08110B5012279
:103FD00011460448FDF70CF904210348FEF76AF97D
:103FE00010BD000000080140D800002010B50022DC
:103FF00001210448FDF7FCF804210348FEF77AF993
:1040000010BD000000080140D80000202DE9F04F4D
:1040100089B08246CF48007801280BD0022805D00D
:1040200003280BD103244FF0010808E005244FF0CA
:10403000020804E008244FF0020800E000BF00BFBF
:10404000C548007801280BD0022805D003280BD1E1
:1040500003254FF0010908E005254FF0020904E0AF
:1040600008254FF0020900E000BF00BFBB48007800
:10407000012820D1BA480068FCF7E1F9B94ABA4BE7
:10408000CDE90001FCF726F9CDE90201FCF7EAF9D8
:104090008346B6480068FCF7D2F9B24AB24BCDE984
:1040A0000001FCF7B8F9CDE90201FCF7DBF906469F
:1040B000AF48059009E0A948007830B9AD48D0F87C
:1040C00000B0AD480668AA480590AC4800780128C1
:1040D00020D1AB480068FCF7B2F9A24AA24BCDE967
:1040E0000001FCF7F7F8CDE90201FCF7BBF90690F7
:1040F000A4480068FCF7A3F99A4A9B4BCDE900015C
:10410000FCF789F9CDE90201FCF7ACF907469848BC
:10411000049009E09948007830B99B4800680690FF
:104120009A480768924804905046FFF701FD0790AF
:10413000BAF1010F7AD189480078012820D12246AE
:1041400093480799FFF756FD9248007878B9002008
:104150009149087091480078401CC0B28F4908709E
:10416000A04204DB01208B4908708B490870894804
:10417000007840B321468648FFF772FC079022E0A2
:1041800076480078F8B9224685480799FFF732FD4E
:104190008448007878B900207F4908708248007808
:1041A000401CC0B280490870A04204DB01207D4958
:1041B0000870794908707B48007820B1214678481A
:1041C000FFF74EFC079059460798FCF771F904D3A6
:1041D00031460798FCF762F91BD205990798FCF75E
:1041E00067F916D27148007898B16B48007880B1B1
:1041F0006F480078401CC0B26D490870404507DB2D
:104200000020087005206B49087001206A49087079
:104210009DE005990798FCF741F908D2002066490E
:104220000870644908706249087090E008E0012055
:104230006149087000205F4908705D49087086E098
:10424000BAF1020F6DD14D480078012820D12A46DD
:104250005A480799FFF7CEFC5948007878B90020F2
:104260005849087058480078401CC0B25649087038
:10427000A84204DB01205249087052490870504896
:10428000007840B329464D48FFF7EAFB079022E04B
:104290003A480078F8B92A464C480799FFF7AAFC33
:1042A0004B48007878B900204649087049480078A2
:1042B000401CC0B247490870A84204DB01204449B1
:1042C0000870404908704248007820B129463F48AC
:1042D000FFF7C6FB0790DDE90610FCF7E9F804D309
:1042E00039460798FCF7DAF81CD204990798FCF7CE
:1042F000DFF817D238480078A0B13248007888B18A
:1043000036480078401CC0B23449087048451EDB6E
:1043100001203349087000203049087005203149D8
:10432000087014E004990798FCF7B8F807D2002049
:104330002B4908702B4908702849087007E00120B4
:10434000274908700020274908702449087009B0DF
:10435000BDE8F08F0A0000200B00002008000020BC
:104360002C0000207B14AE47E17A943F30000020FF
:10437000CDCC4C3D34000020380000200900002046
:104380003C000020400000204400002048000020A5
:104390007C0500204D00002051000020530000202B
:1043A0009C0500204E000020540000200C0000203E
:1043B000240000202600002028000020BC0500204A
:1043C0004F0000205200002055000020DC05002096
:1043D00050000020560000200D0000202500002085
:1043E00029000020270000202DE9F0410446E7784D
:1043F00026796579052F38D008DC012F0FD0022FE0
:1044000017D0032F1DD0042F4AD124E0062F36D019
:10441000072F3DD0202F3CD0302F41D13DE0294601
:104420003046FFF78BF82A4631460120FFF704FD9E
:1044300037E01D4805702A4631460220FFF7FCFC94
:104440002FE029463046FFF737FD2A463146032044
:10445000FFF7F2FC25E029463046FFF751FD2A46DA
:1044600031460420FFF7E8FC1BE029463046FFF701
:1044700069FD2A4631460520FFF7DEFC11E00120E8
:104480000A4908702A4631460620FFF7D5FC08E0A5
:1044900007E02046FFF728FB03E0FFF7EBFC00E016
:1044A00000BF00BFBDE8F081070000204C000020E5
:1044B00010B50A48007880B109480078401CC0B2A5
:1044C00007490870052808DB0020087003490870B8
:1044D000122204490448FEF7BDFB10BD0200002073
:1044E000030000205801002000FC0108000000002B
:1044F0000000000001020304060708090000000094
:1045000001020304244500080000002068000000A8
:104510001C3500088C45000868000020F8090000E0
:104520002C35000800000000000000020101030318
:10453000000000000000000000000000000000007B
:10454000000000000000000000000000000000006B
:10455000000000000000000000000000000000005B
:10456000000000000000000000000000000000004B
:10457000000000000000000000000000000000003B
:0C458000100000000100000000A24A042E
:04000005080000ED02
:00000001FF
